{
  "_format": "hh-sol-artifact-1",
  "contractName": "AITU",
  "sourceName": "contracts/AITU.sol",
  "abi": [
    {
      "inputs": [],
      "stateMutability": "nonpayable",
      "type": "constructor"
    },
    {
      "inputs": [
        {
          "internalType": "address",
          "name": "spender",
          "type": "address"
        },
        {
          "internalType": "uint256",
          "name": "allowance",
          "type": "uint256"
        },
        {
          "internalType": "uint256",
          "name": "needed",
          "type": "uint256"
        }
      ],
      "name": "ERC20InsufficientAllowance",
      "type": "error"
    },
    {
      "inputs": [
        {
          "internalType": "address",
          "name": "sender",
          "type": "address"
        },
        {
          "internalType": "uint256",
          "name": "balance",
          "type": "uint256"
        },
        {
          "internalType": "uint256",
          "name": "needed",
          "type": "uint256"
        }
      ],
      "name": "ERC20InsufficientBalance",
      "type": "error"
    },
    {
      "inputs": [
        {
          "internalType": "address",
          "name": "approver",
          "type": "address"
        }
      ],
      "name": "ERC20InvalidApprover",
      "type": "error"
    },
    {
      "inputs": [
        {
          "internalType": "address",
          "name": "receiver",
          "type": "address"
        }
      ],
      "name": "ERC20InvalidReceiver",
      "type": "error"
    },
    {
      "inputs": [
        {
          "internalType": "address",
          "name": "sender",
          "type": "address"
        }
      ],
      "name": "ERC20InvalidSender",
      "type": "error"
    },
    {
      "inputs": [
        {
          "internalType": "address",
          "name": "spender",
          "type": "address"
        }
      ],
      "name": "ERC20InvalidSpender",
      "type": "error"
    },
    {
      "anonymous": false,
      "inputs": [
        {
          "indexed": true,
          "internalType": "address",
          "name": "owner",
          "type": "address"
        },
        {
          "indexed": true,
          "internalType": "address",
          "name": "spender",
          "type": "address"
        },
        {
          "indexed": false,
          "internalType": "uint256",
          "name": "value",
          "type": "uint256"
        }
      ],
      "name": "Approval",
      "type": "event"
    },
    {
      "anonymous": false,
      "inputs": [
        {
          "indexed": true,
          "internalType": "address",
          "name": "from",
          "type": "address"
        },
        {
          "indexed": true,
          "internalType": "address",
          "name": "to",
          "type": "address"
        },
        {
          "indexed": false,
          "internalType": "uint256",
          "name": "value",
          "type": "uint256"
        }
      ],
      "name": "Transfer",
      "type": "event"
    },
    {
      "inputs": [
        {
          "internalType": "address",
          "name": "owner",
          "type": "address"
        },
        {
          "internalType": "address",
          "name": "spender",
          "type": "address"
        }
      ],
      "name": "allowance",
      "outputs": [
        {
          "internalType": "uint256",
          "name": "",
          "type": "uint256"
        }
      ],
      "stateMutability": "view",
      "type": "function"
    },
    {
      "inputs": [
        {
          "internalType": "address",
          "name": "spender",
          "type": "address"
        },
        {
          "internalType": "uint256",
          "name": "value",
          "type": "uint256"
        }
      ],
      "name": "approve",
      "outputs": [
        {
          "internalType": "bool",
          "name": "",
          "type": "bool"
        }
      ],
      "stateMutability": "nonpayable",
      "type": "function"
    },
    {
      "inputs": [
        {
          "internalType": "address",
          "name": "account",
          "type": "address"
        }
      ],
      "name": "balanceOf",
      "outputs": [
        {
          "internalType": "uint256",
          "name": "",
          "type": "uint256"
        }
      ],
      "stateMutability": "view",
      "type": "function"
    },
    {
      "inputs": [],
      "name": "decimals",
      "outputs": [
        {
          "internalType": "uint8",
          "name": "",
          "type": "uint8"
        }
      ],
      "stateMutability": "view",
      "type": "function"
    },
    {
      "inputs": [],
      "name": "getLastTransactionTimestamp",
      "outputs": [
        {
          "internalType": "string",
          "name": "",
          "type": "string"
        }
      ],
      "stateMutability": "view",
      "type": "function"
    },
    {
      "inputs": [],
      "name": "getTransactionReceiver",
      "outputs": [
        {
          "internalType": "address",
          "name": "",
          "type": "address"
        }
      ],
      "stateMutability": "view",
      "type": "function"
    },
    {
      "inputs": [],
      "name": "getTransactionSender",
      "outputs": [
        {
          "internalType": "address",
          "name": "",
          "type": "address"
        }
      ],
      "stateMutability": "view",
      "type": "function"
    },
    {
      "inputs": [],
      "name": "name",
      "outputs": [
        {
          "internalType": "string",
          "name": "",
          "type": "string"
        }
      ],
      "stateMutability": "view",
      "type": "function"
    },
    {
      "inputs": [],
      "name": "symbol",
      "outputs": [
        {
          "internalType": "string",
          "name": "",
          "type": "string"
        }
      ],
      "stateMutability": "view",
      "type": "function"
    },
    {
      "inputs": [],
      "name": "totalSupply",
      "outputs": [
        {
          "internalType": "uint256",
          "name": "",
          "type": "uint256"
        }
      ],
      "stateMutability": "view",
      "type": "function"
    },
    {
      "inputs": [
        {
          "internalType": "address",
          "name": "to",
          "type": "address"
        },
        {
          "internalType": "uint256",
          "name": "value",
          "type": "uint256"
        }
      ],
      "name": "transfer",
      "outputs": [
        {
          "internalType": "bool",
          "name": "",
          "type": "bool"
        }
      ],
      "stateMutability": "nonpayable",
      "type": "function"
    },
    {
      "inputs": [
        {
          "internalType": "address",
          "name": "from",
          "type": "address"
        },
        {
          "internalType": "address",
          "name": "to",
          "type": "address"
        },
        {
          "internalType": "uint256",
          "name": "value",
          "type": "uint256"
        }
      ],
      "name": "transferFrom",
      "outputs": [
        {
          "internalType": "bool",
          "name": "",
          "type": "bool"
        }
      ],
      "stateMutability": "nonpayable",
      "type": "function"
    }
  ],
  "bytecode": "0x6080604052620000146200013760201b60201c565b600560006101000a81548173ffffffffffffffffffffffffffffffffffffffff021916908373ffffffffffffffffffffffffffffffffffffffff1602179055503480156200006157600080fd5b506040518060400160405280600481526020017f41495455000000000000000000000000000000000000000000000000000000008152506040518060400160405280600381526020017f41545300000000000000000000000000000000000000000000000000000000008152508160039081620000df919062000676565b508060049081620000f1919062000676565b50505062000131600560009054906101000a900473ffffffffffffffffffffffffffffffffffffffff16686c6b935b8bbd4000006200013f60201b60201c565b62000894565b600033905090565b600073ffffffffffffffffffffffffffffffffffffffff168273ffffffffffffffffffffffffffffffffffffffff1603620001b45760006040517fec442f05000000000000000000000000000000000000000000000000000000008152600401620001ab9190620007a2565b60405180910390fd5b620001c860008383620001cc60201b60201c565b5050565b600073ffffffffffffffffffffffffffffffffffffffff168373ffffffffffffffffffffffffffffffffffffffff160362000222578060026000828254620002159190620007ee565b92505081905550620002f8565b60008060008573ffffffffffffffffffffffffffffffffffffffff1673ffffffffffffffffffffffffffffffffffffffff16815260200190815260200160002054905081811015620002b1578381836040517fe450d38c000000000000000000000000000000000000000000000000000000008152600401620002a8939291906200083a565b60405180910390fd5b8181036000808673ffffffffffffffffffffffffffffffffffffffff1673ffffffffffffffffffffffffffffffffffffffff16815260200190815260200160002081905550505b600073ffffffffffffffffffffffffffffffffffffffff168273ffffffffffffffffffffffffffffffffffffffff160362000343578060026000828254039250508190555062000390565b806000808473ffffffffffffffffffffffffffffffffffffffff1673ffffffffffffffffffffffffffffffffffffffff168152602001908152602001600020600082825401925050819055505b8173ffffffffffffffffffffffffffffffffffffffff168373ffffffffffffffffffffffffffffffffffffffff167fddf252ad1be2c89b69c2b068fc378daa952ba7f163c4a11628f55a4df523b3ef83604051620003ef919062000877565b60405180910390a3505050565b600081519050919050565b7f4e487b7100000000000000000000000000000000000000000000000000000000600052604160045260246000fd5b7f4e487b7100000000000000000000000000000000000000000000000000000000600052602260045260246000fd5b600060028204905060018216806200047e57607f821691505b60208210810362000494576200049362000436565b5b50919050565b60008190508160005260206000209050919050565b60006020601f8301049050919050565b600082821b905092915050565b600060088302620004fe7fffffffffffffffffffffffffffffffffffffffffffffffffffffffffffffffff82620004bf565b6200050a8683620004bf565b95508019841693508086168417925050509392505050565b6000819050919050565b6000819050919050565b600062000557620005516200054b8462000522565b6200052c565b62000522565b9050919050565b6000819050919050565b620005738362000536565b6200058b62000582826200055e565b848454620004cc565b825550505050565b600090565b620005a262000593565b620005af81848462000568565b505050565b5b81811015620005d757620005cb60008262000598565b600181019050620005b5565b5050565b601f8211156200062657620005f0816200049a565b620005fb84620004af565b810160208510156200060b578190505b620006236200061a85620004af565b830182620005b4565b50505b505050565b600082821c905092915050565b60006200064b600019846008026200062b565b1980831691505092915050565b600062000666838362000638565b9150826002028217905092915050565b6200068182620003fc565b67ffffffffffffffff8111156200069d576200069c62000407565b5b620006a9825462000465565b620006b6828285620005db565b600060209050601f831160018114620006ee5760008415620006d9578287015190505b620006e5858262000658565b86555062000755565b601f198416620006fe866200049a565b60005b82811015620007285784890151825560018201915060208501945060208101905062000701565b8683101562000748578489015162000744601f89168262000638565b8355505b6001600288020188555050505b505050505050565b600073ffffffffffffffffffffffffffffffffffffffff82169050919050565b60006200078a826200075d565b9050919050565b6200079c816200077d565b82525050565b6000602082019050620007b9600083018462000791565b92915050565b7f4e487b7100000000000000000000000000000000000000000000000000000000600052601160045260246000fd5b6000620007fb8262000522565b9150620008088362000522565b9250828201905080821115620008235762000822620007bf565b5b92915050565b620008348162000522565b82525050565b600060608201905062000851600083018662000791565b62000860602083018562000829565b6200086f604083018462000829565b949350505050565b60006020820190506200088e600083018462000829565b92915050565b61117680620008a46000396000f3fe608060405234801561001057600080fd5b50600436106100b45760003560e01c806370a082311161007157806370a0823114610191578063841b39fc146101c157806395d89b41146101df578063a9059cbb146101fd578063bead3f501461022d578063dd62ed3e1461024b576100b4565b806306fdde03146100b9578063095ea7b3146100d757806318160ddd1461010757806323b872dd14610125578063313ce5671461015557806341a3722414610173575b600080fd5b6100c161027b565b6040516100ce9190610d6c565b60405180910390f35b6100f160048036038101906100ec9190610e27565b61030d565b6040516100fe9190610e82565b60405180910390f35b61010f610330565b60405161011c9190610eac565b60405180910390f35b61013f600480360381019061013a9190610ec7565b61033a565b60405161014c9190610e82565b60405180910390f35b61015d610369565b60405161016a9190610f36565b60405180910390f35b61017b610372565b6040516101889190610d6c565b60405180910390f35b6101ab60048036038101906101a69190610f51565b610382565b6040516101b89190610eac565b60405180910390f35b6101c96103ca565b6040516101d69190610f8d565b60405180910390f35b6101e76103d2565b6040516101f49190610d6c565b60405180910390f35b61021760048036038101906102129190610e27565b610464565b6040516102249190610e82565b60405180910390f35b610235610487565b6040516102429190610f8d565b60405180910390f35b61026560048036038101906102609190610fa8565b610496565b6040516102729190610eac565b60405180910390f35b60606003805461028a90611017565b80601f01602080910402602001604051908101604052809291908181526020018280546102b690611017565b80156103035780601f106102d857610100808354040283529160200191610303565b820191906000526020600020905b8154815290600101906020018083116102e657829003601f168201915b5050505050905090565b60008061031861051d565b9050610325818585610525565b600191505092915050565b6000600254905090565b60008061034561051d565b9050610352858285610537565b61035d8585856105cb565b60019150509392505050565b60006012905090565b606061037d426106bf565b905090565b60008060008373ffffffffffffffffffffffffffffffffffffffff1673ffffffffffffffffffffffffffffffffffffffff168152602001908152602001600020549050919050565b600030905090565b6060600480546103e190611017565b80601f016020809104026020016040519081016040528092919081815260200182805461040d90611017565b801561045a5780601f1061042f5761010080835404028352916020019161045a565b820191906000526020600020905b81548152906001019060200180831161043d57829003601f168201915b5050505050905090565b60008061046f61051d565b905061047c8185856105cb565b600191505092915050565b600061049161051d565b905090565b6000600160008473ffffffffffffffffffffffffffffffffffffffff1673ffffffffffffffffffffffffffffffffffffffff16815260200190815260200160002060008373ffffffffffffffffffffffffffffffffffffffff1673ffffffffffffffffffffffffffffffffffffffff16815260200190815260200160002054905092915050565b600033905090565b610532838383600161078d565b505050565b60006105438484610496565b90507fffffffffffffffffffffffffffffffffffffffffffffffffffffffffffffffff81146105c557818110156105b5578281836040517ffb8f41b20000000000000000000000000000000000000000000000000000000081526004016105ac93929190611048565b60405180910390fd5b6105c48484848403600061078d565b5b50505050565b600073ffffffffffffffffffffffffffffffffffffffff168373ffffffffffffffffffffffffffffffffffffffff160361063d5760006040517f96c6fd1e0000000000000000000000000000000000000000000000000000000081526004016106349190610f8d565b60405180910390fd5b600073ffffffffffffffffffffffffffffffffffffffff168273ffffffffffffffffffffffffffffffffffffffff16036106af5760006040517fec442f050000000000000000000000000000000000000000000000000000000081526004016106a69190610f8d565b60405180910390fd5b6106ba838383610964565b505050565b6060600060016106ce84610b89565b01905060008167ffffffffffffffff8111156106ed576106ec61107f565b5b6040519080825280601f01601f19166020018201604052801561071f5781602001600182028036833780820191505090505b509050600082602001820190505b600115610782578080600190039150507f3031323334353637383961626364656600000000000000000000000000000000600a86061a8153600a8581610776576107756110ae565b5b0494506000850361072d575b819350505050919050565b600073ffffffffffffffffffffffffffffffffffffffff168473ffffffffffffffffffffffffffffffffffffffff16036107ff5760006040517fe602df050000000000000000000000000000000000000000000000000000000081526004016107f69190610f8d565b60405180910390fd5b600073ffffffffffffffffffffffffffffffffffffffff168373ffffffffffffffffffffffffffffffffffffffff16036108715760006040517f94280d620000000000000000000000000000000000000000000000000000000081526004016108689190610f8d565b60405180910390fd5b81600160008673ffffffffffffffffffffffffffffffffffffffff1673ffffffffffffffffffffffffffffffffffffffff16815260200190815260200160002060008573ffffffffffffffffffffffffffffffffffffffff1673ffffffffffffffffffffffffffffffffffffffff16815260200190815260200160002081905550801561095e578273ffffffffffffffffffffffffffffffffffffffff168473ffffffffffffffffffffffffffffffffffffffff167f8c5be1e5ebec7d5bd14f71427d1e84f3dd0314c0f7b2291e5b200ac8c7c3b925846040516109559190610eac565b60405180910390a35b50505050565b600073ffffffffffffffffffffffffffffffffffffffff168373ffffffffffffffffffffffffffffffffffffffff16036109b65780600260008282546109aa919061110c565b92505081905550610a89565b60008060008573ffffffffffffffffffffffffffffffffffffffff1673ffffffffffffffffffffffffffffffffffffffff16815260200190815260200160002054905081811015610a42578381836040517fe450d38c000000000000000000000000000000000000000000000000000000008152600401610a3993929190611048565b60405180910390fd5b8181036000808673ffffffffffffffffffffffffffffffffffffffff1673ffffffffffffffffffffffffffffffffffffffff16815260200190815260200160002081905550505b600073ffffffffffffffffffffffffffffffffffffffff168273ffffffffffffffffffffffffffffffffffffffff1603610ad25780600260008282540392505081905550610b1f565b806000808473ffffffffffffffffffffffffffffffffffffffff1673ffffffffffffffffffffffffffffffffffffffff168152602001908152602001600020600082825401925050819055505b8173ffffffffffffffffffffffffffffffffffffffff168373ffffffffffffffffffffffffffffffffffffffff167fddf252ad1be2c89b69c2b068fc378daa952ba7f163c4a11628f55a4df523b3ef83604051610b7c9190610eac565b60405180910390a3505050565b600080600090507a184f03e93ff9f4daa797ed6e38ed64bf6a1f0100000000000000008310610be7577a184f03e93ff9f4daa797ed6e38ed64bf6a1f0100000000000000008381610bdd57610bdc6110ae565b5b0492506040810190505b6d04ee2d6d415b85acef81000000008310610c24576d04ee2d6d415b85acef81000000008381610c1a57610c196110ae565b5b0492506020810190505b662386f26fc100008310610c5357662386f26fc100008381610c4957610c486110ae565b5b0492506010810190505b6305f5e1008310610c7c576305f5e1008381610c7257610c716110ae565b5b0492506008810190505b6127108310610ca1576127108381610c9757610c966110ae565b5b0492506004810190505b60648310610cc45760648381610cba57610cb96110ae565b5b0492506002810190505b600a8310610cd3576001810190505b80915050919050565b600081519050919050565b600082825260208201905092915050565b60005b83811015610d16578082015181840152602081019050610cfb565b60008484015250505050565b6000601f19601f8301169050919050565b6000610d3e82610cdc565b610d488185610ce7565b9350610d58818560208601610cf8565b610d6181610d22565b840191505092915050565b60006020820190508181036000830152610d868184610d33565b905092915050565b600080fd5b600073ffffffffffffffffffffffffffffffffffffffff82169050919050565b6000610dbe82610d93565b9050919050565b610dce81610db3565b8114610dd957600080fd5b50565b600081359050610deb81610dc5565b92915050565b6000819050919050565b610e0481610df1565b8114610e0f57600080fd5b50565b600081359050610e2181610dfb565b92915050565b60008060408385031215610e3e57610e3d610d8e565b5b6000610e4c85828601610ddc565b9250506020610e5d85828601610e12565b9150509250929050565b60008115159050919050565b610e7c81610e67565b82525050565b6000602082019050610e976000830184610e73565b92915050565b610ea681610df1565b82525050565b6000602082019050610ec16000830184610e9d565b92915050565b600080600060608486031215610ee057610edf610d8e565b5b6000610eee86828701610ddc565b9350506020610eff86828701610ddc565b9250506040610f1086828701610e12565b9150509250925092565b600060ff82169050919050565b610f3081610f1a565b82525050565b6000602082019050610f4b6000830184610f27565b92915050565b600060208284031215610f6757610f66610d8e565b5b6000610f7584828501610ddc565b91505092915050565b610f8781610db3565b82525050565b6000602082019050610fa26000830184610f7e565b92915050565b60008060408385031215610fbf57610fbe610d8e565b5b6000610fcd85828601610ddc565b9250506020610fde85828601610ddc565b9150509250929050565b7f4e487b7100000000000000000000000000000000000000000000000000000000600052602260045260246000fd5b6000600282049050600182168061102f57607f821691505b60208210810361104257611041610fe8565b5b50919050565b600060608201905061105d6000830186610f7e565b61106a6020830185610e9d565b6110776040830184610e9d565b949350505050565b7f4e487b7100000000000000000000000000000000000000000000000000000000600052604160045260246000fd5b7f4e487b7100000000000000000000000000000000000000000000000000000000600052601260045260246000fd5b7f4e487b7100000000000000000000000000000000000000000000000000000000600052601160045260246000fd5b600061111782610df1565b915061112283610df1565b925082820190508082111561113a576111396110dd565b5b9291505056fea26469706673582212205e8951806199f9c2fc2ee5b1be807cd2aaf11cc60b82137df736113d9f5f71c964736f6c63430008140033",
  "linkReferences": {},
  "deployedLinkReferences": {}
}